:020000040800F2
:100000003805002001010008B3210008C5200008C0
:10001000B1210008B509000889250008000000008A
:10002000000000000000000000000000B7210008F0
:10003000B709000800000000B5210008B921000838
:100040001B0100081B0100081B0100081B01000820
:100050001B0100081B0100081B0100081B01000810
:100060001B0100081B0100081B0100081B01000800
:100070001B0100081B0100081B0100081B010008F0
:100080001B0100081B010008ED0800081B01000807
:100090001B0100081B0100081B0100081B010008D0
:1000A0001B0100081B0100081B0100081B010008C0
:1000B000592200081B0100081B0100081B01000851
:1000C0001B0100081B0100081B0100081B010008A0
:1000D0001B0100087D2500081B0100081B0100080A
:1000E0001B0100081B0100081B010008DFF80CD0F1
:1000F00000F066FB00480047292F00083805002063
:100100000648804706480047FEE7FEE7FEE7FEE7B1
:10011000FEE7FEE7FEE7FEE7FEE7FEE71122000846
:10012000ED000008202A04DB203A21FA02F0002129
:10013000704721FA02F3D040C2F1200291400843F7
:1001400019467047D2B201E000F8012B491EFBD2DC
:1001500070470022F6E710B513460A4604461946D2
:10016000FFF7F0FF204610BD70B5064602F032FAE8
:10017000046805460A220021304600F00CF92C6084
:1001800070BD2DE9F04D81EA030404F0004B21F02D
:10019000004514464FF0000A23F0004150EA0502E2
:1001A00020D054EA01021DD0C5F30A570246C5F318
:1001B0001303C1F31300C1F30A5640F4801543F44E
:1001C0008013A7EB0608101BD64608F2FD3873EB28
:1001D000050002D308F1010801E092185B41B8F173
:1001E000000F03DA00200146BDE8F08D00204FF437
:1001F0008011064684460EE0171B73EB050705D3F6
:10020000121B63EB050306434CEA010C49084FEA55
:10021000300092185B4150EA0107EDD152EA030029
:1002200012D082EA040083EA0501084305D0101BBE
:10023000AB4106D20122002306E000224FF000432A
:1002400002E06FF0010253101AEB06004CEB08516C
:1002500010EB0A0041EB0B01BDE8F04D00F00AB9CC
:100260000EB5C10F80EAE0700844CA07002140F2D1
:1002700033438DE80E000A460B4600F00AF903B03E
:1002800000BD20F00040C10DC0F3160040F4000096
:100290007F2901DA00207047962903DCC1F196011D
:1002A000C840704796398840704700F0004230F0EF
:1002B00000400AD0C10D01F56071C0F3160042EA9A
:1002C0000151C208400711437047002001467047A2
:1002D00001F0004330B421F0004150EA010206D0A1
:1002E0000A0DA2F56072C1F31301002A02DC30BCD2
:1002F00000207047440F44EAC104C100E01830BC3C
:1003000000EBC25000F07FB830B50B46014600202C
:100310002022012409E021FA02F59D4205D303FAC7
:1003200002F5491B04FA02F52844151EA2F1010248
:10033000F1DC30BD2DE9F05F0546002092469B467A
:1003400088460646814640241BE0284641464746EB
:100350002246FFF7E7FE53465A46C01A914110D392
:1003600011461846224600F03DFA2D1A67EB0108A7
:100370004F4622460120002100F034FA17EB000915
:100380004E41201EA4F10104DFDC484631462A46D6
:100390004346BDE8F09F2DE9F04791460F46804661
:1003A0000446002614F8015B2DB100F03DFA006808
:1003B000405DC007F6D12B2D02D02D2D18D0641E24
:1003C0004A463946204600F033FA27B13968A1423F
:1003D00001D1C7F8008071054FF002040BD54042EF
:1003E000002803DD02F0F6F80460A007BDE8F087FE
:1003F00046F48066E4E70028F8DA02F0EBF80460DF
:100400006FF00040F2E70029A8BF7047401C490088
:1004100008BF20F00100704710B4B0FA80FC00FA69
:100420000CF050EA010404BF10BC704749B1CCF194
:10043000200421FA04F411FA0CF118BF0121214320
:100440000843A3EB0C01CB1D4FEA00614FEA1020DB
:1004500042BF002010BC704700EBC350104400297D
:10046000A4BF10BC7047401C490008BF20F0010029
:1004700010BC704710B5141E73F1000408DA401C5C
:1004800041F1000192185B411A4301D120F00100B3
:1004900010BD2DE9F04D92469B4611B1B1FA81F2A3
:1004A00002E0B0FA80F22032904600F09BF9044658
:1004B0000F4640EA0A0041EA0B0153465A460843F8
:1004C00013D0114653EA010019D0C8F1400250463A
:1004D000FFF728FE05460E4650465946424600F0B4
:1004E00081F9084305D0012004E020463946BDE8E3
:1004F000F08D0020054346EAE0762C4337430A9806
:100500006305E40AA0EB08000022FD0A44EA475410
:100510000A3002D500200146E9E7010510196941BA
:10052000DDE9084500196941BDE8F04DA2E72DE974
:10053000FE4F804681EA0300C00F0C46009021F078
:10054000004123F00045B8EB0200A94105D2404626
:10055000214690461C460B46024623F000401043BD
:1005600047D0270DC7F30A00C3F30A510290401A7F
:10057000019040286BDAC3F3130040F4801B00980D
:10058000924620B10023D2EB030A63EB0B0B0198D8
:100590005946C0F14002504600F024F906460D4687
:1005A00050465946019A00F02CF910EB08006141C1
:1005B000002487EA115284EAE7731A4340D0009A74
:1005C00062B3019A012A4FEA075215DC001B61EB66
:1005D00002014FF0004202EA0752CDE90042001C3E
:1005E00041F5801132462B46FFF753FF03B0BDE8BB
:1005F000F08F40462146F9E7001B61EB0201001C29
:1006000041F5801300185B412018A2F5001747EB55
:10061000030140EAD570B6196D4111E06D084FEA4B
:10062000360645EAC0754FEA0752001B61EB02012E
:10063000001C41F5801149084FEA30000019514172
:1006400032462B4603B0BDE8F04FFFF713BF0098CA
:10065000012240000023D0EB020263EBE07300981C
:1006600021464FEAE074B8EB000061EB0401E9E7D2
:1006700083F000435BE781F0004158E72DE9FE4F2E
:1006800081EA030404F0004421F0004100944FF09B
:10069000000B23F0004350EA01045ED052EA030449
:1006A0005BD0C3F30A54C1F30A552C44A4F2F334CB
:1006B0000194A0FB0254C1F3130141F48011C3F370
:1006C000130343F4801301FB024400FB034E840A2E
:1006D000970A44EA815447EA8357A4FB07680295C6
:1006E0008D0A05FB07854FEA932C04FB0C54270564
:1006F000029D4FEA065847EA1637B5EB08056EEB40
:10070000070C870E920E47EA811742EA8312A7FB75
:100710000201B6EB0B0164EB00042B0D43EA0C3332
:100720005E1844EB1C50DA465146E7FB0201C5F364
:1007300013044FEA0B3343EA14534FEA0432019C8B
:1007400043EA0603A4F10C040294009CCDE900B432
:10075000FFF79FFE03B0BDE8F08F00200146F9E7E8
:10076000C1F30A52C1F3130140F2FF3341F4801187
:100770009A4202DA00200146704740F233439A421F
:10078000A2F2334202DC5242FFF7CCBC00F02AB89E
:1007900030B5041E71F1000404DB4FF00044404208
:1007A00064EB0101141E73F1000405DB1C464FF0DD
:1007B0000043524263EB0403994208BF904230BDAC
:1007C000064C074D06E0E06840F0010394E807009E
:1007D00098471034AC42F6D3FFF78CFC5830000831
:1007E00078300008202A04DB203A00FA02F10020C9
:1007F00070479140C2F1200320FA03F3194390405F
:100800007047202A06DBCB17203A41FA02F043EA70
:10081000E07306E041FA02F3D040C2F120029140B9
:1008200008431946704700000048704754300008DC
:100830002DE9F05F82460078002715468B460AF1C5
:100840000104B946302801D09DB113E014F8010B22
:100850000127782803D0582801D045B10AE00DB10E
:10086000102D07D10027102514F8010B02E00825F0
:1008700000E00A250026B0460EE005FB080005FB57
:1008800006F1012701EB10461FFA80F8B6F5803F0C
:1008900000D3B94614F8010B294600F018F80028D7
:1008A000EBDABBF1000F05D00FB1641E00E0544637
:1008B000CBF80040B9F1000F06D001F08BFE022109
:1008C0000160C81EBDE8F09F48EA0640FAE73A28F2
:1008D00000D2303820F02002412A01D3A2F13700A3
:1008E000884201D34FF0FF3070470000014800F00C
:1008F00020B900004800002070B5044600688168F7
:10090000C943C9071CD1816821F00101816000F051
:1009100009FC05460FE000BF00F004FC401B022864
:1009200009D9A06A40F01000A062E06A40F001001E
:10093000E062012070BD20688068C043C007EBD032
:10094000002070BDF8B50026044600960068816856
:10095000C943C90728D0816841F00101816013486B
:1009600013490068B0FBF1F000E0401E0090002841
:10097000FBD100F0D7FB054611E000BF00F0D2FB31
:10098000401B02280BD9A06A40F01000A062E06A68
:1009900040F00100E06284F824600120F8BD206886
:1009A0008068C043C007E9D10020F8BD40000020A6
:1009B00040420F00FEE7704770470000F8B5002482
:1009C000009490F824202546012A12D0012280F8B4
:1009D00024204A681F23072A0DD20668776B521E0F
:1009E00002EB820293409F430B6893401F4377635F
:1009F00019E00220F8BD06680D2A0AD2376BD21F13
:100A000002EB820293409F430B6893401F4337637E
:100A100009E0F76A0D3A02EB820293409F430B68AC
:100A200093401F43F7620A68072306680A2A0AD31D
:100A3000F7680A3A02EB420293409F438B68934067
:100A40001F43F76008E0376902EB420293409F437F
:100A50008B6893401F4337610A68102A01D0112A1E
:100A600020D1124B02689A4217D193681B0219D405
:100A7000936843F4000393600968102912D10C496C
:100A80000C4A0968B1FBF2F101EB8101490000E079
:100A9000491E00910029FBD104E0816A41F0200148
:100AA0008162012480F824502046F8BD00240140D2
:100AB0004000002040420F00FEB5194800F036F813
:100AC000184C80B22080E16979B915493031096844
:100AD000496A42F6E062914201D302F0EDF900204A
:100AE000A062206A60622088206222880EA1684687
:100AF00001F04CFD0D210DF800100A210DEB000254
:100B000000246D465170861C07E0054829190A2308
:100B10000122B03001F078FA641CB442F5DBFEBD6E
:100B20004800002000000020256400000068C06C20
:100B3000704710B5044600684168890626D50168EB
:100B4000890723D5A16AC90603D4A16A41F40071BB
:100B5000A1628168C1F34241072910D1217B71B99B
:100B6000416821F020014160A06A20F48070A062F9
:100B7000A06AC00403D4A06A40F00100A06220462D
:100B8000FFF79AFF21686FF0120008602068416843
:100B900009062ED5016849072BD5A16AC90603D4D9
:100BA000A16A41F40051A1628168C1F302310729B1
:100BB00009D04168490515D48168C1F3424107292C
:100BC00010D1217B71B9416821F080014160A06A98
:100BD00020F48050A062A06AC00503D4A06A40F04F
:100BE0000100A0622046FFF7E7FE21686FF00C00CD
:100BF00008602068416849060DD50068C0070AD022
:100C0000A06A40F48030A062204600F093F821688A
:100C10006FF00100086010BD2DE9F0414FF00007B2
:100C200004003D467ED0A06A002628B9E66284F81A
:100C30002460204600F080F82046FFF75DFEA16AA0
:100C4000C90600D420B1A06A40F01000A06269E09B
:100C5000A16A21F4885141F00201A1626268E16950
:100C6000237B0A4347EA43010A43A1684FF4807794
:100C7000B94209D0012907D05FF0000194F814C0EF
:100C8000BCF1010F02D00AE03946F7E7F3B1A36ADD
:100C900043F02003A362E36A43F00103E3622368A5
:100CA000D3F804C02CF4694C4CEA010CC3F804C01E
:100CB00021688B68DFF870C003EA0C0313438B6074
:100CC000A168B9420BD0012909D00CE0DFF85CC063
:100CD000A3690CEB43330B4343F40061DFE7218A44
:100CE0000D05A5F580152168CB6A23F470032B430D
:100CF000CB62216889680E4B1940914208D1E662A7
:100D0000A16A21F0020141F00101A162BDE8F08178
:100D1000A06A20F0020040F01000A062E06A40F0FB
:100D20000100E0620120F1E7FDF7E1FF00E0FFFFD5
:100D3000FE0E1FFF7047000000B585B00021009136
:100D400001910291039100681249884220D1124812
:100D5000816941F400718161816901F4007104913C
:100D6000816941F0040181618069694600F00400F5
:100D700004900120009003200190084800F0DCF866
:100D800000221146122000F039FA122000F028FA51
:100D900005B000BD002401400010024000080140E1
:100DA00070B5044690F8240001280DD0012084F885
:100DB00024002046FFF7C6FD02004FF0000005D0DA
:100DC00084F82400104670BD022070BDA16A40F670
:100DD0000163994341F48071A162224D2368224945
:100DE000AB4218D10E6816F4702F14D0A66A46F4E0
:100DF0008016A6620E68760505D5A66A26F400560A
:100E000046F48056A662A66AF6040AD5E66A26F07B
:100E10000606E66206E0A66A26F48016A6625E680A
:100E2000E9E7E06284F824006FF0020018602068AF
:100E3000436843F02003436020688368C3F3424360
:100E4000072B05D1A84208D1096811F4702F04D0EE
:100E5000816841F480118160B4E7816841F4A001A8
:100E6000F9E70000002801400424014010B50446C1
:100E700090F82400012807D0012084F8240020469F
:100E8000FFF73AFD10B107E0022010BDA16A21F47E
:100E9000885141F00101A162002184F8241010BDA5
:100EA00010B590F821100024022903D00421816399
:100EB00001243DE001680A6822F00E020A60016820
:100EC0000A6822F001020A601A4A0168914201D1BF
:100ED000012121E0174A1432914201D110211BE077
:100EE000144A2832914201D1891515E0114A3C3249
:100EF000914201D189140FE00E4A5032914202D141
:100F00004FF4803108E00B4A6432914202D14FF431
:100F1000801101E04FF08071064A083A51600121CA
:100F200080F82110002180F82010416B01B1884722
:100F3000204610BD080002402DE9F84FDFF8B891B7
:100F4000002409F1040A0AF1040B23460F270BF1D0
:100F5000040EC9E00125A5402A40AA427DD1674E72
:100F6000D1F804C0ACEB0608B44532D014DCBCF1B7
:100F7000030F3AD009DCBCF1000F2AD0BCF1010FFD
:100F80001CD0BCF1020F31D11DE0BCF1110F17D004
:100F9000BCF1120F2AD119E0B8F5881F19D006DC70
:100FA000B8F5803F15D0B8F5801F1FD111E0B8F516
:100FB000001F0ED0B8F5041F18D10AE0CB6815E069
:100FC000CB681B1D12E0CB6808330FE0CB680C33F5
:100FD0000CE08B682BB1012B4FF0080303D0456167
:100FE00004E0042302E0056100E00023FF2A01D8A9
:100FF000064601E000F104064FEA840501D9A5F197
:101000002005D6F8008007FA05FC28EA0C0803FA48
:1010100005F548EA0508C6F800804D68ED0062D580
:10102000374DAE6946F00106AE61AD6924F00306A6
:1010300005F001050095334D06EB050CDCF8085072
:10104000A607360F07FA06F825EA0805DFF8B88084
:10105000404503D14FF0000817E044E0DFF8AC80D2
:10106000404502D14FF001080FE0DFF8A480404571
:1010700002D14FF0020808E0DFF89880404502D125
:101080004FF0030801E04FF0040808FA06F848EAB8
:101090000508CCF808804D68D9F80060ED034D468E
:1010A00001D5164300E096432E604D68DAF80060E3
:1010B000AD03554601D5164300E096432E604D68BA
:1010C000DBF80060ED025D4601D5164300E0964373
:1010D0002E604D68DEF80060AD02754601D51643FE
:1010E00000E096432E60641C0D682A46E5407FF4BC
:1010F00031AFBDE8F88F000000040140000011107E
:10110000001002400000014000080140000C0140B6
:1011100000100140001401400AB101617047090448
:10112000FBE70000014880687047000034000020A1
:1011300002488168027811448160704734000020C1
:10114000074810B5016841F010010160032000F06C
:1011500075F8002000F006F800F024F8002010BD1B
:101160000020024070B50D4D04464FF47A71287886
:10117000B1FBF0F00A490968B1FBF0F000F062FB46
:1011800048B9102C07D200222146501E00F036F834
:1011900000206C6070BD012070BD00003400002094
:1011A000400000200C4808B5816941F001018161CF
:1011B000816901F001010091C16941F08051C16173
:1011C000C06900F0805000900448416821F0E0615F
:1011D00041F00071416008BD001002400000014074
:1011E000002809DB00F01F02012191404009800026
:1011F00000F1E020C0F8001170470000F0B40E4B81
:101200001B680C46C3F30223C3F10705042D00D964
:101210000425191D072901D2002300E0DB1E012649
:1012200006FA05F1491E214099409E40761E16405F
:101230003143F0BC01F0BEB90CED00E0064900F00E
:10124000070208684FF6FF03184040EA0220034AED
:1012500010430860704700000CED00E00000FA0544
:101260002DE9F84305460078354CC00754D0E069B5
:101270000026C00008D4E06940F08050E061E069D9
:10128000012600F0805000902E480168C90512D454
:101290000168804641F480710160FFF743FF074613
:1012A00005E000BFFFF73EFFC01B642823D8D8F835
:1012B0000000C005F6D5206A10F4407021D0A9883E
:1012C00001F4407181421CD0206A1F49012220F4A0
:1012D00040700A6000220A602062C00711D0FFF748
:1012E00021FF074641F2883808E000BFFFF71AFFE8
:1012F000C11B414502D90320BDE8F883206A80075D
:10130000F4D5206A696820F44070084320621EB159
:10131000E06920F08050E0612878800705D560689A
:10132000A96820F44040084360602878C00605D5CD
:101330006068E96820F48000084360600020DBE713
:101340000010024000700040400442422DE9F04786
:101350000F46050061D0434E306800F00700B842E8
:1013600009D2306820F0070038433060306800F060
:101370000700B84251D128683B4C810712D540077D
:1013800003D5606840F4E06060602878000703D50A
:10139000606840F4605060606068A96820F0F00008
:1013A000084360602878C00728D06868012810D0FA
:1013B0002168022810D0890700292EDA616821F0FF
:1013C000030101436160FFF7ADFE804641F28839B9
:1013D0000DE021688903EFE78901EDE7FFF7A2FE41
:1013E000A0EB0801494502D90320BDE8F0876068F9
:1013F000696800F00C00B0EB810FEFD1306800F0AD
:101400000700B8420BD9306820F00700384330603D
:10141000306800F00700B84201D00120E5E72878E5
:10142000400705D56068E96820F4E0600843606023
:101430002878000706D56068296920F4605040EAE2
:10144000C100606000F038F86168084AC1F3031118
:10145000515CC8400649086006480068FFF782FEF4
:101460000020C2E70020024000100240B82F000810
:101470004000002038000020044805490068496801
:10148000044AC1F30221515CC8407047400000206B
:1014900000100240C82F0008044805490068496848
:1014A000044AC1F3C221515CC8407047400000208B
:1014B00000100240C82F000812A185B00FC98DE8A6
:1014C0000F0014A0144A006804905168134801F0FA
:1014D0000C03042B10D0082B0ED1C1F38343C90396
:1014E0001DF803000AD5516804AAC1F34041515CBC
:1014F0000A4A5043B0FBF1F005B070470849484331
:10150000FAE7000002030405060708090A0B0C0DA0
:101510000E0F1010010200000010024000127A00AD
:1015200000093D002DE9F84F040070D02078C04D2F
:10153000C00749D06868C0F38100012807D06868F7
:10154000C0F38100022809D16868C00306D5286865
:10155000800339D560680028E7D035E06068B0F5D1
:10156000803F0BD010B1B0F5A02F11D0286820F427
:1015700080302860286820F4802002E0286840F449
:1015800080302860606890B1FFF7CCFD06460AE025
:10159000286840F480202860F0E700BFFFF7C2FD14
:1015A000801B642873D828688003F7D50CE0FFF708
:1015B000B9FD064605E000BFFFF7B4FD801B6428B7
:1015C000F0D828688003F7D420789A4E80074FF02F
:1015D00001094FF0000839D5686810F00C0F07D0EA
:1015E0006868C0F38100022809D16868C00306D486
:1015F0002868800714D52069012808D110E02069E7
:10160000B0B1C6F80090FFF78DFD074605E00AE18E
:10161000FFF788FDC01B0228C4D828688007F7D5CB
:101620002868616920F0F80040EAC10028600DE0F8
:10163000C6F80080FFF776FD074604E0FFF772FD6D
:10164000C01B022823D828688007F7D42078000719
:101650002CD57948A169D9B1C0F80090FFF762FD97
:10166000074604E0FFF75EFDC01B02280FD8686A3A
:101670008007F7D571484FF4FA510068B0FBF1F0DC
:10168000009000BF0098411E0091FAD20EE080E069
:10169000C0F80080FFF746FD074604E0FFF742FD73
:1016A000C01B022875D8686A8007F7D420784007E5
:1016B00060D5E8690027C00008D4E86940F0805090
:1016C000E861E869012700F0805000905C480168FB
:1016D000C90513D40168834641F480710160FFF7A6
:1016E00021FD824606E000BFFFF71CFDA0EB0A00CB
:1016F00064284ED8DBF80000C005F5D5E068012865
:101700000AD008B1052813D0286A20F00100286209
:10171000286A20F0040002E0286A40F001002862F4
:10172000E06841F2883B98B1FFF7FCFC82460BE091
:10173000286A40F004002862EEE700BFFFF7F2FCE1
:10174000A0EB0A0159455AD8286A8007F6D50CE063
:10175000FFF7E8FC824605E0FFF7E4FCA0EB0A0196
:1017600059454CD8286A8007F6D41FB1E86920F0A3
:101770008050E861E06988B36968C1F3810102299A
:1017800044D00228C6F8608004D0FFF7CBFC0446A2
:1017900038E034E0FFF7C6FC074604E0FFF7C2FC80
:1017A000C01B02282BD828688001F7D4206AB0F526
:1017B000803F05D16868A16820F400300843686064
:1017C000D4E908010843696821F47411084368608A
:1017D000C6F86090FFF7A6FC044606E025E000BFCF
:1017E000FFF7A0FC001B022809D828688001F7D564
:1017F0001BE000BFFFF796FC001B022802D9032064
:10180000BDE8F88F28688001F4D40EE00128F7D0F5
:101810006868226A00F48031914204D1616A00F460
:101820007010884201D00120EAE70020E8E70000BC
:10183000001002400000424280044242400000206A
:101840000070004010B5401EB0F1807F01D3012030
:1018500010BD4FF0E02460610F21601700F0AAFE78
:101860000020A06107202061002010BD7047704754
:1018700070B590F83C20012A19D0012400F83C4FA3
:101880000222427050F83C3C5A689D6822F0700673
:101890000A684968324325F0800529435A6050F8A8
:1018A0003C2C9160447000210170084670BD0220FC
:1018B00070BD10B5040003D094F83D0010B107E0EE
:1018C000012010BD002084F83C00204600F00CF8F8
:1018D000022084F83D00211D206800F0C3FC012097
:1018E00084F83D00002010BD08B501681048B1F132
:1018F000804F0BD00F4A914207D1C16941F00201DC
:10190000C161C06900F00200009008BDC16941F0EA
:101910000101C161C069002200F001000090114680
:101920001C20FFF76BFCBDE808401C20FFF758BCEB
:101930000010024000040040022180F83D100168C0
:101940008A6802F00702062A03D00A6842F0010200
:101950000A60012180F83D10002070470168CA68C4
:1019600042F00102CA600068816801F0070106299F
:1019700003D0016841F0010101600020704702219D
:1019800080F83D1001680A6A41F211131A4207D12A
:101990000A6A9B101A4203D10A6822F001020A6007
:1019A000012180F83D100020704770B5044690F882
:1019B0003C00012817D0012584F83C50022084F80F
:1019C0003D002068826822F0770222F47F42826024
:1019D0000868502830D00DDC20284DD005DC98B3A5
:1019E00010283BD148E0022070BD302844D0402868
:1019F00034D139E0602828D0702806D0B0F5805F57
:101A00002CD0B0F5005F29D10AE0CB68D1E90121E3
:101A1000206800F05DFC2068816841F0770109E0F2
:101A2000CB68D1E90121206800F052FC2068816870
:101A300041F48041816011E0CA684968206800F083
:101A400059FC5021206807E016E0CA684968206800
:101A500000F061FC6021206800F044FC84F83D50F7
:101A6000002084F83C0070BDCA684968206800F016
:101A700041FC40212068EFE7226801461046EBE771
:101A8000704770B50446006801694FF00005C9430E
:101A9000890715D4C168C943890711D4E91E0161BA
:101AA00001202077206880698007204602D0FFF758
:101AB000E7FF04E000F098F8204600F096F825775C
:101AC00020680169C943490717D4C168C943490758
:101AD00013D46FF00401016102202077206880692F
:101AE00010F4407F204602D0FFF7CAFF04E000F068
:101AF0007BF8204600F079F8257720680169C94312
:101B0000090716D4C168C943090712D46FF0080148
:101B10000161042020772068C0698007204602D038
:101B2000FFF7AEFF04E000F05FF8204600F05DF83C
:101B3000257720680169C943C90617D4C168C9431C
:101B4000C90613D46FF010010161082020772068C6
:101B5000C06910F4407F204602D0FFF791FF04E0F7
:101B600000F042F8204600F040F82577206801692F
:101B7000C943C90708D1C168C943C90704D1891E2F
:101B80000161204600F032F820680169C943090666
:101B900009D4C168C943090605D46FF08001016109
:101BA0002046FFF763FE20680169C943490609D44E
:101BB000C168C943490605D46FF040010161204660
:101BC00000F02AF820680169C94389060BD4C1686E
:101BD000C943890607D46FF0200101612046BDE8A2
:101BE0007040FFF744BE70BD7047704710B5006885
:101BF000B0F1804F0CD10748FFF738F90548303075
:101C0000FFF7BDFE0348BDE810407030FFF7B7BED8
:101C100010BD0000480000207047704770B5026892
:101C200004461068D168536910F00F0F50D003F0CC
:101C3000010501F4907635435DD0C20705D0CA0591
:101C400003D5E26B42F00102E263420705D5DA07F1
:101C500003D0E26B42F00202E263820705D5DA07A5
:101C600003D0E26B42F00402E263020705D5DA0713
:101C700003D0E26B42F00802E263E26B002A33D049
:101C8000800604D5880602D5204600F06CFB20684B
:101C90004069E16BC0F38010090700D428B32046E7
:101CA00000F053FB2068416949061AD5416921F0CB
:101CB00040014161606BA0B11B494163606BFFF75C
:101CC000EFF8002810D0606B416BBDE8704008470A
:101CD000830610D58B060ED52046BDE8704000F077
:101CE00042BB2046FFF799FF70BD2046FFF795FFE6
:101CF0000020E06370BD030606D50B0604D5204620
:101D0000BDE8704000F0D6BB4006F3D54806F1D5DB
:101D1000D168204621F04001D160202184F839109B
:101D200000F0CFF970BD00003B23000870B504003F
:101D300004D094F83900002510B106E0012070BDF0
:101D400084F83850204600F023F8242084F8390025
:101D50002068C16821F40051C160204600F04EFBAC
:101D60002068016921F4904101612068416921F0F6
:101D70002A0141612068C16841F40051C160E563F6
:101D8000202084F8390084F83A00002070BD00005B
:101D900030B585B000240094019402940394006847
:101DA000184988422CD11848816941F480418161E9
:101DB000816901F480410491816941F004018161EC
:101DC0008069124D00F0040004904FF40070009000
:101DD000022001900320039069462846FFF7ACF8E3
:101DE0002815CDE90004694628460294FFF7A4F8B7
:101DF000002211462520FFF701FA2520FFF7F0F910
:101E000005B030BD0038014000100240000801401C
:101E100090F83A30202B22D1F9B1F2B190F8383055
:101E2000012B1CD081628285C2850021C1632222E0
:101E300080F83A2080F838100168CA6842F480724D
:101E4000CA6001684A6942F001024A610068C168DB
:101E500041F02001C160002070470120704702203E
:101E60007047000070B500685C498AB088423DD177
:101E70005B4A0021144616786378A578A2F12C00FD
:101E8000732E05D0574C662E32D0622E5DD060E0A6
:101E9000742B5ED1612D5CD1D378722B59D112791C
:101EA000742A56D14160C1618160C1604161816124
:101EB0000162416281626423062249494A4800F076
:101EC000A3F84AA0642300680090022269464648AD
:101ED00000F09AF844484038FFF72EFD4248803819
:101EE000FFF73CFD4048B038FEF75AFF0AB070BD1E
:101EF0003D2B2ED100206B461518AD781D54401C8B
:101F00000428F9DB8DF804101846FEF72DF9FEF7CA
:101F1000A7F902460B4600202146FEF732F9FEF7EC
:101F2000D7F9FEF7AEF9304940390A68D062C86087
:101F3000642306222A492C4800F066F82BA064236B
:101F40000068022202A902900AE0702B01D16D2DD7
:101F50000AD027A2642307CA8DE807000C2269462D
:101F6000214800F051F8C1E781694069081AFEF77D
:101F700077F900222346FEF704F902460B460020BB
:101F80001E49FEF7FEF8FEF7A3F904461CA06423E1
:101F900000680890042208A9134800F035F820468C
:101FA000FEF783F902460B4616A1684600F0EEFAEA
:101FB0000D210DF800100A210DEB000200246D46E2
:101FC0005170861C06E029190A230122064800F0F8
:101FD0001BF8641CB442F6DB88E7000000380140BF
:101FE0002C00002000408F40F80000200D0A000067
:101FF0006E6F20636F6D6D616E640D0A00004E4060
:1020000062706D3D256600002DE9F843044690F8A6
:1020100039001F4616460D46202850D1A5B19EB165
:1020200094F8380001284AD0012084F838004FF095
:102030000008C4F83C80212084F83900FFF772F8CA
:10204000A6848146E68426E00120BDE8F883E08C82
:10205000401EE084A0684B46B0F5805F4FF0000260
:102060004FF080012046009703D000F054FAE8B901
:102070000DE000F050FAC8B928882168C0F30800C4
:102080004860206908B16D1C05E0AD1C03E02168C3
:1020900015F8010B4860E08C0028D8D14B4600228F
:1020A00040212046009700F036FA08B10320CCE723
:1020B000202084F8390084F838800020C5E7022009
:1020C000C3E77047FEE700003EB500240D480094CA
:1020D000019402940A498460016004730475012527
:1020E00005614FF400214460C161FEF795FDCDE923
:1020F0000045694603480294FEF760FC3EBD0000BF
:10210000002401404800002010B586B00024124889
:10211000009401940294039404944FF08041059438
:1021200001604FF4FA51C0E901144EF66021C0E994
:1021300003148461FFF7BDFB4FF4805000906946A3
:102140000548FFF732FC049404A903480594FFF7FF
:102150008FFB06B010BD00007800002010B586B0DF
:1021600000241248009401940294039404940E49AC
:10217000059401604FF4FA51C0E901140621C0E949
:1021800003148461FFF795FB4FF48050009069467B
:102190000648FFF70AFC2020CDE9040404A90348FF
:1021A000FFF766FB06B010BD00040040B800002039
:1021B000FEE7704770477047FEF7BABF30B593B07F
:1021C00028216846FDF7C5FF14210AA8FDF7C1FFC5
:1021D000002401200F9402250490009510201194F2
:1021E00005901094129407946846FFF79BF90F200E
:1021F000CDE90A040C940D9400210AA80E94FFF76F
:10220000A5F80FA80F951194FFF72AF813B030BD69
:102210000D48016841F00101016041680B4A11401D
:10222000416001680A4A11400160016821F480217F
:102230000160416821F4FE0141604FF41F0181609B
:102240000449C00308607047001002400000FFF816
:10225000FFFFF6FE08ED00E00148FFF712BC0000AA
:1022600078000020F0B50268164B174C174D4FF060
:102270008047984205D0B84203D0A04201D0A8427E
:1022800003D122F070064A683243984205D0B84222
:1022900003D0A04201D0A84203D122F44074CA68FE
:1022A00022434C6922F08002224302608A68C262A3
:1022B0000A688262984201D1096901630121416182
:1022C000F0BD0000002C0140000400400008004068
:1022D00010B5846842EA032224F47F440A4322436F
:1022E000826010BD826822F070020A4342F007014A
:1022F0008160704710B5036A046A24F00104046227
:10230000846924F0F00444EA021423F00A020A4328
:102310008461026210BD10B5036A23F010030362EA
:102320008369046A23F4704343EA023224F0A00371
:1023300043EA01118261016210BD10B5406A0021BB
:10234000C185C184FFF769FC10BD0168CA6822F429
:102350009072CA6001684A6922F001024A61202134
:1023600080F83A10704710B590F83A10222901D041
:10237000022010BD8168B1F5805F11D0016900298C
:1023800001681FD0496801F07F03816A4A1C82629C
:102390000B70C18D491E0904090CC18518D02BE0B2
:1023A0000269816A002A0268526805D0D2B20A80A6
:1023B000816A491C8162ECE7C2F308020A80816AE3
:1023C000891CF7E74A68816A4B1C83620A70E0E760
:1023D0000168CA6822F02002CA600168CA6822F453
:1023E0008072CA6001684A6922F001024A612021B4
:1023F00080F83A10FFF736FD002010BD2DE9F041BE
:10240000044600680169E26821F44051114301610A
:102410002169A0680843616908432168CA6841F2DC
:102420000C639A430243CA6020684169A26921F49F
:102430004071114341611E4920686425322688425B
:1024400002D1FFF729F801E0FFF716F800EBC00111
:1024500001EB001160686FF018078000B1FBF0F22B
:10246000B2FBF5F2B1FBF0F37A4303EB8202B1FB6E
:10247000F0F306EB0212B2FBF5F2B3FBF5F302F058
:10248000F00202EB0312B1FBF0F3B1FBF0F0B0FB92
:10249000F5F0784303EB800006EB0010B0FBF5F09D
:1024A000216800F00F0010448860BDE8F081000052
:1024B0000038014090F83910212901D002207047DE
:1024C0008168B1F5805F016A0BD04A1C0262026824
:1024D00009785160C18C491E0904090CC1840ED0D1
:1024E00017E009880268C1F30801516001690029F9
:1024F000016A02D0491C0162ECE7891CFBE7016814
:10250000CA6822F08002CA600068C16841F04001D8
:10251000C160002070472DE9F041984617460E46ED
:102520000446069D1DE0681C1BD02DB1FEF7FAFD88
:10253000A0EB0800A84214D92068C16821F4D0712A
:10254000C1602068416921F001014161202084F8C7
:10255000390084F83A00002084F838000320BDE8F0
:10256000F0812068006836EA000004D00020B842FC
:10257000D9D00020F3E70120F9E700000148FFF778
:102580004DBB0000F8000020FEE700000FB4084B30
:1025900010B504A902AA039800F0F2F8044602A9B3
:1025A000002000F084FC204610BC5DF814FB000005
:1025B000AF2E00080907090E002804DB00F1E02017
:1025C00080F80014704700F00F0000F1E02080F860
:1025D000141D7047004870474400002002E008C8FE
:1025E000121F08C1002AFAD170477047002001E08D
:1025F00001C1121F002AFBD1704700002DE9FF5FC7
:1026000082B00021DDE90430020DDDF840B0034363
:1026100018D044F61050A2F2FF324243151411981C
:1026200001281FD0A5EB0B00401C5FEA000A4FF009
:1026300000064E4FDFF83891B046504615D5CAF126
:10264000000413E0119801244AA3012801D16FEA84
:102650000B010298119AC0E90031C0E9024206B0AC
:10266000BDE8F09FCBF10000DFE704460021404ABF
:10267000491842EB0450CDE9001012E0E00707D002
:1026800032463B4640464946FDF7F8FF80468946BC
:1026900032463B4610461946FDF7F0FF06460F4608
:1026A0006410002CEAD1DDE90401DDE90023BAF170
:1026B000000F06DAFDF7E2FF42464B46FDF7DEFF6C
:1026C00005E0FDF75EFD42464B46FDF75AFD044628
:1026D0000E460022284BFEF75BF803D84FF0FF3080
:1026E000014607E00022254B20463146FDF71FFF3B
:1026F000FEF736F8102409E0002C0ADB0A2200233A
:10270000FDF718FE039B30321A55641E50EA010291
:10271000F2D1641C039AC4F111031444119A012AE2
:1027200003D0012208430DD10AE0084304D0002061
:102730004FF0110B119072E7A3EB0B056D1E0DE02E
:102740005B4504DD4FF0000205F1010504E003DA0A
:102750004FF00002A5F10105002AECD00298119972
:10276000C0E90231C0E9004579E7000000001440EB
:102770000000F03F300000000000F0430000E03FA8
:102780002DE9FF4F95B09B468946064600250FE28E
:10279000252877D100242746F84A0121059400E036
:1027A000044316F8013F203B01FA03F01042F7D131
:1027B00030782A2811D06FF02F033078A0F1300242
:1027C000092A16D8059A44F0020402EB820203EBB0
:1027D00042021044761C0590EFE759F8042B05924D
:1027E000002A03DA504244F40054059044F00204F5
:1027F000761C30782E2816D116F8010F44F0040408
:102800002A280DD06FF02F023078A0F13003092B69
:1028100009D807EB870302EB4303C718761CF3E7DD
:1028200059F8047B761C30786C280FD006DC4C28D5
:1028300017D068280DD06A2814D104E0742810D06D
:102840007A280FD10DE044F400140AE044F4801417
:1028500001E044F440147278824202D104F58014FD
:10286000761C761C307866280BD013DC582877D07D
:1028700009DC002875D04528F6D04628F4D0472832
:102880001AD19DE118E0632835D0642879D06528F5
:1028900012D195E1702873D008DC6728F1D069283F
:1028A0006FD06E280DD06F2806D1B5E073282CD0DC
:1028B000752875D0782874D05A46179990476D1CA2
:1028C00075E1C4F30250022809D003280DD0D9F8CD
:1028D000001004280DD00D6009F1040967E1D9F852
:1028E0000010EA17C1E90052F6E7D9F800100D8090
:1028F000F2E70D70F0E719F8041B8DF800100020C6
:102900008DF80100EA46012003E059F804AB4FF0CE
:10291000FF3061074FF0000102D40DE008F1010122
:102920008846B9420FDA8045F8DB1AF8081000290A
:10293000F4D108E008F1010188468142FADB1AF877
:1029400008100029F6D105985B46A0EB0807214640
:102950003846179A00F094FA284400EB080507E07F
:102960004DE029E10DE01AF8010B5A4617999047FE
:10297000B8F10108F7D25B4621463846179A13E1B1
:1029800042E00A220092C4F302524FF0000A022AE7
:1029900008D059F804CB032A4FEAEC710AD00DE0B5
:1029A00029E02AE009F1070121F00702F2E802C15B
:1029B000914609E00FFA8CFC4FEAEC71042A03D12E
:1029C0004FFA8CFC4FEAEC71002907DA0A46002125
:1029D000DCF1000C61EB02012D2202E0220504D59E
:1029E0002B228DF80420012203E0E20701D02022EF
:1029F000F7E7904659E00A2102E010220DE010218D
:102A00004FF0000A00910BE010224FF0000A44F052
:102A100004040827009203E008224FF0000A009205
:102A2000C4F30252022A05D059F804CB0021032A2C
:102A300008D009E009F1070121F00702F2E802C11C
:102A4000914605E01FFA8CFC042A01D10CF0FF0C22
:102A50004FF00008220728D5702806D0009B83F08D
:102A6000100353EA0A0305D00EE040228DF804203B
:102A7000012208E05CEA010206D030228DF8042031
:102A80008DF8050002229046009B83F0080353EA6C
:102A90000A030AD15CEA010201D1620705D530229E
:102AA0008DF804204FF001087F1E582804D034A070
:102AB00003900EA802900DE036A0F9E75346604659
:102AC000009AFDF737FC84460398825C0298401E0A
:102AD000029002705CEA0100F0D1029806A9081A7F
:102AE00000F1200A600702D524F4803400E00127B9
:102AF000574502DDA7EB0A0000E0002000EB0A01C9
:102B0000009005984144401A0590E00306D45B46C6
:102B10002146179A059800F0B3F90544002706E00E
:102B200001A85A46C05D179990476D1C7F1C474508
:102B3000F6DBE0030CD55B462146179A059800F0BA
:102B40009FF9054404E030205A46179990476D1CC0
:102B50000099481E00900029F5DC08E002980299CF
:102B60005A460078491C0291179990476D1CBAF19A
:102B70000001AAF1010AF1DC65E100000928010069
:102B800030313233343536373839616263646566E3
:102B900000000000303132333435363738394142A5
:102BA000434445460000000000F058F90544761CF7
:102BB000307800287FF4ECAD19B02846BDE8F08FDE
:102BC000620700D4062709F1070222F0070CFCE88F
:102BD0000223E14603F000485FEA080C02D00FF23E
:102BE000702C0DE05FEA045C02D50FF2682C07E060
:102BF0005FEAC47C02D00FF2602C01E0AFF2700CEF
:102C00004FF0FF3823F00043CDF850C065280CD0BA
:102C100006DC452809D046281DD047283DD13DE097
:102C2000662818D067287ED138E00021112F01DBFB
:102C3000112000E0781CCDE9000106A90EA8FFF7DD
:102C4000DDFCDDE90F010E9A03910021009207F1EE
:102C5000010A04914DE04FF000400097CDE90110CA
:102C600006A90EA8FFF7CAFCDDE90F0203920E9B2E
:102C700011990022DDF80CA00093049211B9791C7F
:102C800000EB010AB7EB0A0004D4C0F1FF3007F1F2
:102C9000010A0490AAEB0700019044E0012F00DA3A
:102CA00001270021112F01DD112000E03846CDE978
:102CB000000106A90EA8FFF7A1FCDDE90F010E9A9D
:102CC0000391002104910092BA4621070CD4039984
:102CD000514500DA8A46BAF1010F05DD009AAAF1E2
:102CE0000101515C302908D0B84202DA10F1040F1A
:102CF00006DA0121CDE9011015E0AAF10101E9E7A9
:102D0000002805DC049901440491AAEB000102E0CB
:102D1000411C514500DD8A460499401A401C01902F
:102D20004FF000400290200704D40198504501DB89
:102D3000CDF8048000208DF84F0002980DF14F0768
:102D4000B0F1004F25D02B200E9002984FF00208D2
:102D500000280CDA404202902D200E9007E00A2154
:102D60000298FDF7D1FA3031029007F8011DB8F151
:102D70000001A8F10108F2DC02980028EFD1791EC9
:102D80000E980870307800F0200040F0450007F8F9
:102D9000020D12A8C01B00F107081498007800B1BA
:102DA000012000EB0A01019801EBE0710598414414
:102DB000401A401E0590E00306D45B462146179A50
:102DC000059800F05DF805441498007818B15A464B
:102DD000179990476D1CE00324D55B462146179A4E
:102DE000059800F04DF805441CE00498002807DB26
:102DF000DDE90301884203DD0098405C179901E09A
:102E0000179930205A469047049805F10105401C57
:102E100004900198401E019004D12E205A46179923
:102E200090476D1CBAF10001AAF1010ADDDC05E052
:102E300017F8010B5A46179990476D1CB8F100011D
:102E4000A8F10108F4DC5B462146179A0598ABE629
:102E50002D0000002B000000200000002DE9F041B3
:102E6000044600251E461746880404D405E039466A
:102E70002020B0476D1C641EF9D52846BDE8F081BE
:102E80002DE9F041044600251E469046C80301D5B1
:102E9000302700E02027880404D505E04146384665
:102EA000B0476D1C641EF9D52846BDE8F0810A685C
:102EB000531C0B601070704770B540F6D8618842A3
:102EC0002ADD164C216A884226DD606A814223DDB4
:102ED000A16A884220DD12480068456A2069281AE4
:102EE000B0F5167F18DB606948B12A1A0D484FF417
:102EF0008051B2F5966F04DD0122656107E06561DE
:102F000007E0A2692AB90122C4E906520022FEF7AD
:102F100003F90120256170BD002070BD0000002074
:102F200078000020000C014086B0FEF709F9FFF799
:102F300045F91C4800240294816941F00401816133
:102F4000816901F004010491816941F00801816106
:102F50008069694600F0080004904FF480500090AA
:102F600001200190022003900F48FDF7E5FF104873
:102F70000E4901604FF4E131C0E901140C21C46035
:102F8000C0E904418461C461FEF7D0FEFFF79CF8FC
:102F9000FFF7E4F8FFF7B8F8062206490448FEF701
:102FA00037FFF9E700100240000C014000380140F3
:102FB000F80000202C0000200000000000000000AD
:102FC00001020304060708090000000001020304CF
:102FD000004040404040404040404141414141402C
:102FE00040404040404040404040404040404040E1
:102FF0004005020202020202020202020202020270
:103000000220202020202020202020020202020274
:1030100002029090909090901010101010101010CC
:1030200010101010101010101010101002020202D8
:10303000020288888888888808080808080808081C
:103040000808080808080808080808080202020218
:1030500040000000D12F0008783000080000002058
:1030600048000000DC250008C030000848000020AF
:10307000F0040000EC250008000000000000000043
:103080000000000000000000000000000000000040
:103090000000000000000000000000000000000030
:1030A000000000000000000000000000010000001F
:1030B00010000000000000000024F40000000000E8
:04000005080000ED02
:00000001FF
